:1000000058C000007EC000007CC000007AC0000024
:1000100078C0000076C0000074C0000072C000000C
:1000200070C000006EC000006CC000006AC000001C
:1000300068C000000C941F2564C0000062C000006E
:100040000C94DB2D5EC000000C9447300C9479308A
:1000500058C0000056C0000054C0000052C000004C
:100060000C94BE2C4EC000000000000800020100ED
:100070000003040700000000000000000102040863
:100080001020408001020408102001020408102002
:10009000040404040404040402020202020203032E
:1000A0000303030300000000250028002B002A2A78
:1000B0009E3011241FBECFEFD8E0DEBFCDBF11E0D0
:1000C000A0E0B1E0E6EBF2E602C005900D92A63D9D
:1000D000B107D9F725E0A6EDB1E001C01D92AC3D16
:1000E000B207E1F710E0C9E5D0E004C02197FE01B6
:1000F0000E942A31C735D107C9F70E943E260C94C9
:1001000059317ECFCF92DF92EF92FF926B017C014B
:10011000C114D104E104F10469F48091000181115A
:1001200009C080910201909103010E949B2981E006
:1001300080930001C601880F991F880F991F805076
:100140009F4FFF90EF90DF90CF900895009781F040
:10015000FC012181211104C040EA56E861E070E011
:10016000FC01828193810E94AA2990E080E0089599
:1001700088E090E008954F925F926F927F928F9205
:100180009F92AF92BF92CF92DF92EF92FF920F9326
:100190001F93CF93DF930097C9F1280139017A01AA
:1001A000EC01402F8A819B810E94282A8A819B81B1
:1001B000DC01ED91FC910084F185E02D0995892BFE
:1001C00001F16701812C912C54018A819B81DC0112
:1001D000ED91FC910084F185E02D0995892B91F139
:1001E00084149504A604B70469F18A819B81DC011B
:1001F000ED91FC910284F385E02D09958F3F9807DE
:10020000C1F484E0F70111928A95E9F788E090E063
:10021000DF91CF911F910F91FF90EF90DF90CF90E2
:10022000BF90AF909F908F907F906F905F904F9016
:100230000895FFEF8F1A9F0AAF0ABF0AD6018D9368
:100240006D01C3CF90E080E0E3CF8F929F92AF9299
:10025000BF92CF92DF92EF920F931F93CF93DF93D2
:100260000097F1F06A01EC018A819B810E94AD291F
:100270008A819B81DC01ED91FC910280F381E02D6C
:10028000A801B60109958A819B8160E0E11001C057
:1002900061E00E94B729882389F08250823088F07B
:1002A00088E090E0DF91CF911F910F91EF90DF9068
:1002B000CF90BF90AF909F908F90089590E080E096
:1002C000F1CF84E090E0EECF0895892B21F483E113
:1002D00095E00C94E72F08958F929F92AF92BF9272
:1002E000CF92DF92EF92FF926B017C010E94252E4C
:1002F0004B015C010E94252E681979098A099B0926
:10030000C616D706E806F906A8F7FF90EF90DF902B
:10031000CF90BF90AF909F908F9008950C94252E12
:1003200090E080E008950F931F93009709F487C031
:100330006115710509F483C000910801109109014C
:1003400020910A0130910B010E3F1F4F2F4F3F4F5D
:1003500009F066C04FEF5FEFBA0140930801509378
:10036000090160930A0170930B01409108015091BB
:10037000090160910A0170910B01DC011296ED9167
:10038000FC9180819181A281B381809344029093FA
:100390004502A0934602B093470284819581A681CD
:1003A000B7818093400290934102A0934202B093A0
:1003B000430280859185A285B38580933C0290930A
:1003C0003D02A0933E02B0933F0284859585A685A9
:1003D000B7858093380290933902A0933A02B09384
:1003E0003B021092340210923502109236021092A3
:1003F000370239D788E599E09093D7018093D601E9
:100400009093D9018093D8011DD6009731F421E053
:1004100030E030934902209348021F910F910895D4
:10042000009108011091090120910A0130910B01FE
:10043000DB010D931D932D933C93139796CF8FEF74
:100440009FEFEBCF8F929F92AF92BF92CF92DF92AE
:10045000EF92FF921F93CF93DF934B015C011091BA
:100460004B0282E090E0909349028093480281140D
:100470009104A104B10441F480914B02811104C0A4
:1004800080914A02C1E08111C0E0C12CD12C7601DB
:1004900080914B02811106C080914A02811102C0F5
:1004A000CC23D9F083E090E09093490280934802F6
:1004B000CC2379F1CCE9DFEF111102C00E94BC0C12
:1004C000CE01DF91CF911F91FF90EF90DF90CF9001
:1004D000BF90AF909F908F9008956AE070E080E0A9
:1004E00090E00E94562E80E1C80E87E2D81EE11CE3
:1004F000F11C8FEF88169806A806B80631F0C1E007
:100500008C149D04AE04BF0408F0C0E080E0CED59A
:10051000BFCFD0E0C0E0D0CFCF92DF92EF92FF927A
:100520000F931F93CF93DF938F3F910511F008F046
:1005300050C020914802309149022330310539F0F2
:1005400020914802309149022130310531F424E0F4
:1005500030E030934902209348026A017B01EC01AC
:1005600082309105A0F011E0AE01C701B60169D556
:10057000AB01BC01CE011123F9F0DF91CF911F91A6
:100580000F91FF90EF90DF90CF900C94E50E8C01CF
:10059000000F111F0A521E4FD8018D919C91892B7B
:1005A00011F30E94EF0E0297F1F6D801ED91FC9144
:1005B000CE010995182FD8CF0E94070F90E080E058
:1005C000DF91CF911F910F91FF90EF90DF90CF902F
:1005D00008958FEF9FEFF4CF80E068C5CF93DF934E
:1005E00086E090E09093490280934802B8D5EC01F0
:1005F000E6EDF1E084E0DF011D928A95E9F70E94C3
:10060000540C1092490210924802CE01DF91CF9112
:10061000089580914A02089580913302089560936D
:1006200008017093090180930A0190930B0190E0F7
:1006300080E008954F925F926F927F928F929F9287
:10064000AF92BF92CF92DF92EF92FF920F931F93E0
:10065000CF93DF93CDB7DEB764970FB6F894DEBFC4
:100660000FBECDBFC0900401D0900501E0900601FF
:10067000F0900701A70196016091B6057091B7054A
:100680008091B8059091B9050E942D27882341F0EB
:10069000C092B605D092B705E092B805F092B905C0
:1006A0008091BA05811104C039DE81E08093BA05DA
:1006B00088E08B8B8C8BC12CEE24E39401E010E05E
:1006C00020E030E0AE014C5E5F4F68E270E0809168
:1006D000C1059091C205B9DD8B8B811162C1CC241B
:1006E000C394E12C06E010E020E030E0AE014F5F63
:1006F0005F4F68E270E08091C1059091C2053BDDDB
:1007000086E0FE013196DE011D9601900D928A95DC
:10071000E1F784E18B8B8C8BC12CEE24E39401E018
:1007200010E020E030E0AE014C5E5F4F68E270E028
:100730008091C1059091C20588DD8B8B81111AC013
:10074000CC24C394E12C06E010E020E030E0AE01C0
:100750004F5F5F4F68E270E08091C1059091C205E4
:100760000ADD86E0FE013196DE01179601900D92BA
:100770008A95E1F78EE08B8B8C8BC12CEE24E39471
:1007800001E010E020E030E0AE014C5E5F4F68E237
:1007900070E08091C1059091C20557DD8B8B81116E
:1007A0001AC0CC24C394E12C06E010E020E030E035
:1007B000AE014F5F5F4F68E270E08091C10590919C
:1007C000C205D9DC86E0FE013196DE011796019064
:1007D0000D928A95E1F78091BB05882341F185E36D
:1007E0008B8B8C8BC12CEE24E39401E010E020E095
:1007F00030E0AE014C5E5F4F68E270E08091C10571
:100800009091C20522DD8B8B811111C0CC24C39441
:10081000E12C01E010E020E030E0AE014D5E5F4FE2
:1008200068E270E08091C1059091C205A4DC6D85FD
:100830007E85072E000C880B990B0E94C72720E0AD
:1008400030E048EC52E40E9431276093CE0570936B
:10085000CF058093D0059093D1056F857889072EB9
:10086000000C880B990B0E94C72720E030E048EC71
:1008700052E40E9431276093D2057093D305809390
:10088000D4059093D50569897A89072E000C880BC9
:10089000990B0E94C72720E030E048EC52E40E9408
:1008A00031276093D6057093D7058093D805909330
:1008B000D905C0900602D0900702E0900802F0909F
:1008C00009028FEFC81AD80AE80AF80AC09206028D
:1008D000D0920702E0920802F0920902C114D104FA
:1008E000E104F10499F480910A0290910B02A09125
:1008F0000C02B0910D020196A11DB11D80930A0258
:1009000090930B02A0930C02B0930D0280900E0204
:1009100090900F02A0901002B090110260910A0214
:1009200070910B0280910C0290910D020E94C527DC
:10093000A50194010E947B2820E030E040E85FE4BC
:100940000E947B282B013C01C701B6010E94C527EC
:10095000A50194010E947B289B01AC01C301B20157
:100960000E94C926609302027093030280930402DE
:100970009093050264960FB6F894DEBF0FBECDBF0C
:10098000DF91CF911F910F91FF90EF90DF90CF906B
:10099000BF90AF909F908F907F906F905F904F909F
:1009A00008951E861D86188A1F861A8A198AB1CE56
:1009B000CF92EF920F931F93CF93DF9300D000D08D
:1009C00000D0CDB7DEB7ECEEF1E08BE2DF011D9297
:1009D0008A95E9F780E090E0A0E2B1E4809312020A
:1009E00090931302A0931402B09315028DEC9CEC2B
:1009F000ACE4BEE380930E0290930F02A09310022A
:100A0000B09311028EE691EAA0EBB0E78093F0017B
:100A10009093F101A093F201B093F30184E192E28B
:100A2000A2E3B7E78093F4019093F501A093F60158
:100A3000B093F7018FE09AEEA2E8B8E58093F80151
:100A40009093F901A093FA01B093FB0184E796EC2F
:100A5000AFEDB2EB8093FC019093FD01A093FE01FA
:100A6000B093FF0180EE91E09093EF018093EE014F
:100A70008AED91E09093E1018093E00181E391E0C0
:100A80009093DB018093DA019093DD018093DC0188
:100A90009093DF018093DE0180E092E09093E50186
:100AA0008093E40180EF91E09093E3018093E20171
:100AB00082E092E09093E7018093E601EEECF5E0AE
:100AC0008CE0DF011D928A95E9F7E0EBF5E08EE11D
:100AD000DF011D928A95E9F780E090E5A3ECB8E488
:100AE0008093C7059093C805A093C905B093CA0524
:100AF00081E08093CD058091040190910501A09142
:100B00000601B09107018093B6059093B705A093B5
:100B1000B805B093B90581E090E0A0E0B0E0809323
:100B2000B1059093B205A093B305B093B40550E01E
:100B300040E060E070E0CB01E5DA9093C20580937D
:100B4000C10540EA56E861E070E04093C305509368
:100B5000C4056093C5057093C605F8DA68E572E0D0
:100B600080E090E0B9DB1D821E82C12CEE24E3946C
:100B700001E010E020E030E0AE014A5F5F4F68E244
:100B800070E08091C1059091C2055FDB8D8381117A
:100B90000AC1CC24C394E12C01E010E020E030E055
:100BA000AE014B5F5F4F68E270E08091C1059091AC
:100BB000C205E1DA8D8191E0803A09F090E09093EE
:100BC000BB05803A09F0DFC01A828DE389838981F1
:100BD0009A819C838B83C12CE12C02E010E020E001
:100BE00030E0AE014D5F5F4F68E270E08091C1057B
:100BF0009091C2052ADB69E170E080E090E06CDB57
:100C000080E28A838FE3898389819A819C838B83A5
:100C100002E010E020E030E0AE014D5F5F4F68E29F
:100C200070E08091C1059091C2050FDB1D821E828C
:100C3000EE24E39401E010E020E030E0AE014A5FF2
:100C40005F4F68E270E08091C1059091C205FDDAC6
:100C50008D8390E0811112C0CC24C394E12C01E07B
:100C600010E020E030E0AE014B5F5F4F68E270E0E3
:100C70008091C1059091C2057EDA9D8181E0903A14
:100C800009F080E08093BB058091BB05882309F4BF
:100C90008CC062E370E080E090E01EDB1A828EE39D
:100CA000898389819A819C838B83C12CE12C02E00A
:100CB00010E020E030E0AE014D5F5F4F68E270E091
:100CC0008091C1059091C205C0DA8FE38983898143
:100CD0009A819C838B8302E010E020E030E0AE013B
:100CE0004D5F5F4F68E270E08091C1059091C20551
:100CF000ACDA87E0898389819A819C838B8302E0C7
:100D000010E020E030E0AE014D5F5F4F68E270E040
:100D10008091C1059091C20598DA6AE070E080E0A8
:100D200090E0DADA80E88A838BE3898389819A818B
:100D30009C838B8302E010E020E030E0AE014D5F49
:100D40005F4F68E270E08091C1059091C2057DDA45
:100D50008CE08A838DE3898389819A819C838B834C
:100D600002E010E020E030E0AE014D5F5F4F68E24E
:100D700070E08091C1059091C20567DA69E170E089
:100D800080E090E0A9DA81E08093B50526960FB661
:100D9000F894DEBF0FBECDBFDF91CF911F910F91B1
:100DA000EF90CF90089580E006CF6AE070E080E099
:100DB00090E092DA1D821E82C12C3ACF8091B0055C
:100DC000811118C081E08093B0058091B1059091A8
:100DD000B205A091B305B091B4050197A105B10585
:100DE00049F48091B505882329F08091C10590913F
:100DF000C2056ADA8091BC0581111BC081E0809335
:100E0000BC058091BD059091BE05A091BF05B09134
:100E1000C0050197A105B10561F482E090E0A0E072
:100E2000B0E08093BD059093BE05A093BF05B0933D
:100E3000C00508954F925F926F927F928F929F921A
:100E4000AF92BF92CF92DF92EF92FF920F931F93D8
:100E5000F8944090230250902402609025027090F4
:100E60002602C0901702D0901802E0901902F0906C
:100E70001A02452B09F0A6C09B01AC0124193509C3
:100E80004609570929013A0100911F0210912002D9
:100E9000209121023091220248015901840C951CB5
:100EA000A61CB71C80169106A206B306A0F40091FA
:100EB0001B0210911C0220911D0230911E020F5F37
:100EC0001F4F2F4F3F4F00931B0210931C02209384
:100ED0001D0230931E0280921F0290922002A09267
:100EE0002102B092220200911B0210911C0220915B
:100EF0001D0230911E028092270290922802A09239
:100F00002902B0922A0200932B0210932C02209304
:100F10002D0230932E02609323027093240280935B
:100F2000250290932602A301920160E47DE083E014
:100F300090E00E94F9306C0D7D1D8E1D9F1D609309
:100F40001702709318028093190290931A0200916D
:100F500008011091090120910A0130910B010F3F06
:100F60001F4F2F4F3F4FF1F00091080110910901E1
:100F700020910A0130910B010E3F1F4F2F4F3F4F21
:100F800089F0C0900801D0900901E0900A01F0902A
:100F90000B0121E08C149D04AE04BF0408F420E092
:100FA0002093330278941F910F91FF90EF90DF9080
:100FB000CF90BF90AF909F908F907F906F905F90F9
:100FC0004F9008954B015C0184189508A608B70856
:100FD000A3019201261B370B480B590B64157505AD
:100FE00086059705E0F082169306A406B50640F440
:100FF00020E030E0A90181149104A104B104A1F41E
:1010000060E47DE083E090E00E94F930A701960162
:10101000261B370B480B590BCA01B901C3CF8216E7
:101020009306A406B50660F7A501940160E47DE08F
:1010300083E090E00E94F9306C0D7D1D8E1D9F1D98
:10104000B1CFF8CECF93DF9300D000D0CDB7DEB7CD
:101050001C821B821A82198210922F021092300277
:101060001092310210923202BE016F5F7F4FCE01AB
:1010700003960E94082569817A818B819C810E9458
:10108000FE1D009761F4BE016F5F7F4FCE01039696
:101090000E94142569817A818B819C812CD50F90C7
:1010A0000F900F900F90DF91CF910895FF920F93C3
:1010B0001F93CF93DF93082F60E070E0CB010E9475
:1010C000562EFF24F3940E94E91CEC01892B89F031
:1010D00010E0CE3F8FEFD80769F0002361F160E0A8
:1010E00070E0CB010E94562E81E090E0892B59F3ED
:1010F00022C011E023D5EC01892B21F0CE3F8FEFE8
:10110000D80759F711111EC011E0229609F410E01A
:101110000E949A1CEC01892B21F0CE3F8FEFD8075B
:10112000E1F6111111C011E0CE3F8FEFD80709F49D
:1011300010E001110BC0CE01DF91CF911F910F91F3
:10114000FF90089511E0E4CF11E0F3CF60E070E08C
:10115000CB010E94562E1F25812F90E0C7CFCF9341
:10116000DF9380913302882321F060E070E0CB01AF
:101170004CD635D6D0E0C0E0892B71F06AE070E043
:1011800080E090E00E94562E81E090DF28D62196E4
:10119000C03D27E0D20781F727D60E94521E109249
:1011A0004B0210924A021092440210924502109291
:1011B0004602109247021092400210924102109291
:1011C00042021092430210923C0210923D02109291
:1011D0003E0210923F021092380210923902109291
:1011E0003A0210923B021092340210923502109291
:1011F0003602109237024EEF5FEF6FEF7FEF4093B2
:1012000008015093090160930A0170930B01109239
:101210003302E7E2F2E028E0DF011D922A95E9F7C8
:10122000109223021092240210922502109226029C
:1012300010921F021092200210922102109222029C
:1012400010921B0210921C0210921D0210921E029C
:1012500010921702109218021092190210921A029C
:10126000DF91CF9108951092570210925802109278
:10127000590210925A021092560280915F02909188
:101280006002909355028093540210925302109280
:10129000520210924E0210924F021092500210927F
:1012A000510210925C0210925B0290E080E008957F
:1012B000CF92DF92EF92FF920F931F93CF938C0107
:1012C000892B09F055C020915F0230916002809116
:1012D00054029091550240915F02509160025093E8
:1012E0005502409354022817390781F01092530297
:1012F0001092520210924E0210924F02109250021F
:101300001092510210925C0210925B0280915F0277
:1013100090916002019761F580915B0290915C026F
:10132000892B21F480910C01811112C080915B0204
:1013300090915C020197E1F480914E0290914F02EE
:10134000A0915002B09151020197A105B10581F41D
:1013500010924E0210924F021092500210925102BF
:1013600010920C0182E090E090935C0280935B020B
:1013700080915F0290916002019709F01CC18091F9
:101380007502909176028017910709F014C180913F
:10139000710290917202A0917302B0917402009751
:1013A00009F409C12091700221110DC04091710210
:1013B000509172026091730270917402452B462B1A
:1013C000472B09F4F8C020915B0230915C02223077
:1013D000310509F0F0C0209152022111ECC0FC014E
:1013E000C080D180E280F38080915602882309F486
:1013F000D3C08091620290916302892B09F4FDC0F1
:10140000209162023091630281E02230310509F0BF
:1014100080E02091620230916302C1E02130310509
:1014200049F02091620230916302C1E0223031051F
:1014300009F0C0E0882309F456C020916C02309175
:101440006D0240916E0250916F02C701B6010E9479
:10145000772887FD14C020916C0230916D02409175
:101460006E0250916F026091570270915802809104
:10147000590290915A020E942D2787FD22C0209187
:101480006C0230916D0240916E0250916F02C70163
:10149000B6010E947728181634F520916C0230911D
:1014A0006D0240916E0250916F02609157027091EF
:1014B00058028091590290915A020E942D27811161
:1014C00012C08091640290916502A0916602B09171
:1014D0006702892B8A2B8B2B19F481E080935302AE
:1014E00081E080935202CC2309F456C020916C0213
:1014F00030916D0240916E0250916F02C701B601AA
:101500000E942D2787FF14C020916C0230916D023C
:1015100040916E0250916F02609157027091580293
:101520008091590290915A020E94772887FF22C029
:1015300020916C0230916D0240916E0250916F02C9
:10154000C701B6010E942D27811126C020916C028F
:1015500030916D0240916E0250916F02609157027E
:10156000709158028091590290915A020E947728F6
:10157000181694F48091640290916502A09166021D
:10158000B0916702892B8A2B8B2B19F481E0809311
:10159000530281E08093520281E0909152029111B6
:1015A00080E080935602C0925702D0925802E09297
:1015B0005902F0925A02012B09F067C180915B0237
:1015C00090915C02892BD9F4109261021092520220
:1015D00080910C01882379F082E090E090935C0286
:1015E00080935B0210920C0120915F0230916002A7
:1015F00081E0232BE9F080E01BC081E00ACF10924C
:101600000C0180916102882349F0109253021092DC
:101610005C0210925B0210926102EDCF80915F023A
:1016200090916002892BE1F0809152021092520257
:1016300020915B0230915C022230310509F45EC0DA
:1016400088F42115310509F448C02130310509F429
:10165000F3C010925302109252021092610238C0ED
:1016600081E0E6CF2330310509F4B1C024303105E3
:1016700081F740914E0250914F026091500270915B
:101680005102411551056105710561F04150510943
:101690006109710940934E0250934F0260935002CA
:1016A0007093510240914E0250914F02609150024E
:1016B00070915102452B462B472BD9F420915D02A6
:1016C00030915E022130310509F046C0109253027C
:1016D00010925C0210925B020CC080910C01882376
:1016E00041F082E090E090935C0280935B02109264
:1016F0000C0110924C0280915302CEC08823C9F392
:101700008091640290916502A0916602B091670297
:10171000181619061A061B060CF07DC080915F0290
:1017200090916002019709F076C0809164029091D7
:101730006502A0916602B091670280934E02909379
:101740004F02A0935002B093510283E090E0909337
:101750005C0280935B02CDCF409168025091690298
:1017600060916A0270916B02452B462B472BA9F0C2
:10177000109253028091680290916902A0916A02CE
:10178000B0916B0280934E0290934F02A09350024F
:10179000B093510281E090E0DACF882399F08091F4
:1017A0000D0190910E01A0910F01B0911001809355
:1017B0004E0290934F02A0935002B093510284E0E6
:1017C00090E0C5CF1092530282E090E0C0CF8091AC
:1017D0004E0290914F02A0915002B0915102009799
:1017E000A105B10559F00197A109B10980934E02F5
:1017F00090934F02A0935002B093510280914E02F9
:1018000090914F02A0915002B0915102892B8A2BE6
:101810008B2B09F06ECF80910D0190910E01A0915C
:101820000F01B0911001892B8A2B8B2B09F44ECF1D
:1018300081E080935302B3CF40914E0250914F020A
:101840006091500270915102411551056105710579
:1018500061F0415051096109710940934E02509362
:101860004F02609350027093510240914E0250918A
:101870004F026091500270915102452B462B472B2D
:1018800009F037CF8111C7CF9FCF80914C028823B9
:1018900009F431CF80914D02CF911F910F91FF90AC
:1018A000EF90DF90CF900895109257021092580257
:1018B0001092590210925A021092560210925C0233
:1018C00010925B021092550210925402109276020E
:1018D00010927502109253021092520210924E0210
:1018E00010924F02109250021092510210924D022B
:1018F00010924C02109271021092720210927302B6
:10190000109274021092700210926C0210926D028A
:1019100010926E0210926F0288EE93E0A0E0B0E0A9
:1019200080930D0190930E01A0930F01B0931001CD
:10193000109268021092690210926A0210926B0271
:101940001092640210926502109266021092670271
:10195000109263021092620281E080930C01109257
:1019600061021092600210925F0210925E02109269
:101970005D0290E080E0089580915F0290916002A6
:10198000892B19F580910C01882351F08091610217
:10199000811106C081E080934D0280934C0208952E
:1019A0002091610230910C0181E090E0332311F02D
:1019B00090E080E030E082239323892B21F0109285
:1019C0004D0281E0EACF10924C02089582E090E04F
:1019D000FA01918380838FEF9FEF0895CF93DF9378
:1019E000EA01009711F00E946F1F1982188290E09F
:1019F00080E0DF91CF910895DB01009719F48FEF1C
:101A00008C9308952EEF2C930F968F30910508F04C
:101A100033C0FC01E25FF24F0C942A313A0D380DCD
:101A2000360D340D320D2E0D300D2C0D2A0D280DD6
:101A3000250D210D1D0D230D3C0D80E311968C937A
:101A4000089589E2FBCF82E2F9CF11961C920895A6
:101A500083E2F4CF81E2F2CF81E1F0CF87E2EECFF3
:101A60008AE2ECCF80E1EACF84E2E8CF88E2E6CFF9
:101A700086E2E4CF81E3E2CF80E2E0CF809183028F
:101A80009091840208959093840280938302089534
:101A900080918202089590918202892B8093820224
:101AA0000895982F909580918202892380938202D5
:101AB000089580918102089580917F029091800223
:101AC00008956115710559F0FB0130E020E070E0E8
:101AD00060E02417350719F06115710511F0CB018D
:101AE0000895A081B181A817B90709F4BF012F5F3C
:101AF0003F4F3696EECF8091850281111CC062D295
:101B000068D290937802809377020E9482170E9495
:101B1000941790937C0280937B020E94041C0E9485
:101B20000B1C90937A028093790281E08093850266
:101B300090E080E0089584EF9FEF08958F929F9248
:101B4000AF92BF92CF92DF92EF92FF920F931F93CB
:101B5000CF93DF93CDB7DEB72A970FB6F894DEBFE9
:101B60000FBECDBF1A86198618861F821E821D825F
:101B70001C821B821A8219828091850207EF1FEF57
:101B8000882309F49CC08E010D5F1F4F9E012B5FBF
:101B90003F4FAE01495F5F4FBE01675F7F4F90E0EF
:101BA00080E00E94841D8C01009721F00596029729
:101BB00008F0DBC029853A852115310509F402C1F9
:101BC000ED80FE804B815C81B701640F751F8F81B2
:101BD00098858617970708F4F5C0E20EF31ED70123
:101BE0009C91903C09F07FC04230510508F47BC0C5
:101BF00011968C914091830250918402452B09F4F7
:101C00009CC0913F08F071C02CE1290F2D3008F4E1
:101C10008BC02DE2290F203108F489C0903C21F4BB
:101C20008150823008F483C088E3890F8B3008F438
:101C300081C09CEFC92E9CE0D92EE6EEFCE06D81C0
:101C40007E81AE014F5F5F4F89859A8509955C0162
:101C5000C114D104A1F189809A808114910479F191
:101C60008B819C818815990508F487C010E000E0FD
:101C70004B815C8170E060E0C7010E945231011528
:101C80001105E9F449815A8169857A858D819E81A2
:101C9000680F791FC501F6010995E980FA800D8169
:101CA0001E812F81388549855A856FEF7FEF81E04E
:101CB00090E00E94201D8C01892B09F056C0C801BC
:101CC0002A960FB6F894DEBF0FBECDBFDF91CF913D
:101CD0001F910F91FF90EF90DF90CF90BF90AF904A
:101CE0009F908F90089580E085CF30E020E0220F14
:101CF000331FF901E958FD4F0190F081E02D309735
:101D000009F497CF892F90E00995009709F491CFB6
:101D1000DC011296ED91FC9113971496CD90DC9016
:101D2000309709F08CCF1FC021E030E0E0CF22E0F7
:101D300030E0DDCF23E030E0DACFD12CC12CEEEE65
:101D4000FCE09F3F09F07BCFE0917702F0917802B1
:101D5000309721F4C90104EF1FEF0CC08FEF90E022
:101D600009950097A9F604EF1FEF89859A850097DA
:101D700009F4A5CF0E946F1FA2CF0E944D1E8C01B7
:101D800089859A850E946F1F70E060E0C4010E94FF
:101D9000E61D98878F830E941D1D9E838D836F8112
:101DA00078856115710559F0C8010E94FB209A875A
:101DB000898706EF1FEF892B09F058CF59CF08EF1D
:101DC0001FEF56CF08EF1FEFD0CF209185022223BF
:101DD00019F020E00C94991787EF9FEF08958091F8
:101DE00083029091840208950E94101C0E946A1B35
:101DF000F5D0E7E7F2E088E0DF011D928A95E9F788
:101E00001092850290E080E008950C94C71921E0BB
:101E100040E050E0BA010C94991786E090E0FA0196
:101E20009183808390E080E0089547E050E064E390
:101E300071E047CEDF92EF92FF920F931F93CF9303
:101E4000DF938A01EC01C60FD71FE0908902F09062
:101E50008A02D9800E94351ED816190678F082E0D1
:101E600090E0F801918380838EEF9FEFDF91CF9117
:101E70001F910F91FF90EF90DF900895EF2841F4AC
:101E800082E090E0F8019183808384EF9FEFEECFB2
:101E900089818093880290E00196F8019183808384
:101EA00090E080E0E3CFCF93DF93EA010E94781ABD
:101EB000882321F00E94421E0E94791A82E090E05D
:101EC000998388838BEF9FEFDF91CF910895CF9314
:101ED000DF93EB0186E0FB0111928A95E9F78FEF22
:101EE0008883D6DD8983E5DD8A83E6DD9D838C8367
:101EF000DF91CF910895CF93DF93EA010E947B1A7F
:101F0000811109C082E090E09983888385EF9FEF7B
:101F1000DF91CF91089590E080E0B5DD81E090E021
:101F20009983888390E080E0F3CF0F931F93CF9342
:101F3000DF93EA018C01060F171F0E947B1A8111A3
:101F40000BC082E090E09983888385EF9FEFDF915B
:101F5000CF911F910F910895F8018181823038F05F
:101F600082E090E0998388838EEF9FEFF0CF81E04D
:101F700090E089DD88E090E09983888390E080E0BC
:101F8000E6CFCF93DF930097D1F4EB01FB013296BC
:101F900086E0DF011D928A95E9F78FEF888385E05F
:101FA00089831A820E94351E8B830E94341E9D8372
:101FB0008C8381E08E838F83DF91CF910895DF91B1
:101FC000CF911ACD85E19FE090938702809386029E
:101FD0000895809186029091870208951092870259
:101FE0001092860208958091890290918A02089544
:101FF000411105C0611571058105910561F060937E
:10200000890270938A0280938B0290938C02409392
:102010008D0281E0089580E00895FF920F931F9351
:10202000CF93DF938A01EC01C60FD71FF9800E947E
:10203000351EF816190668F082E090E0F8019183E9
:1020400080838EEF9FEFDF91CF911F910F91FF90D3
:1020500008956C817D818E819F814B81C9DF8111C3
:1020600008C082E090E0F8019183808384EF9FEFC5
:10207000EACF89818093880290E00196F8019183EC
:10208000808390E080E0DFCFCF93DF93EA01FC0113
:10209000E60FF71F64817581868197814381A8DFF0
:1020A000811109C082E090E09983888384EF9FEFDB
:1020B000DF91CF91089581E090E09983888390E04B
:1020C00080E0F6CFE9E8F2E04081518162817381DE
:1020D000480F511D611D711D4083518362837383BD
:1020E0000895CF93C09188024C2F50E060918902EF
:1020F00070918A0201960E9449318C2FE3DF109281
:102100008802CF910895009799F480918902909167
:102110008A022FEFFB012083892B59F0209188023E
:1021200030E02F5F3F4F2417350719F4CB01D9CF8B
:1021300063CC0895009799F48091890290918A0266
:102140002FEFFB012083892B59F02091880230E08A
:102150002F5F3F4F2417350719F4CB01C2CF4CCC6A
:10216000089523E1AC01249FC001259F900D112407
:10217000E0919202F0919302E80FF91F23813481DC
:102180002250310981E02230310508F080E00895C5
:102190000F931F93CF93DF930091940210919502B8
:1021A000D0E0C0E080E00C171D0749F491E08111F8
:1021B00090E0892FDF91CF911F910F9108958111A8
:1021C000F5CFCE01CEDF2196EECFA0919202B09155
:1021D0009302109729F12091940230919502821771
:1021E0009307F0F453E1589F9001599F300D11244B
:1021F000A20FB31FED91FC911197309789F01296C1
:102200008C91681768F48BE0689FE00DF11D112434
:1022100080819181892B21F081E09281491708F01A
:1022200080E008959C0143E1429FC001439F900DCF
:102230001124E0919202F0919302E80FF91F838537
:10224000823091F481E090E06581768140911101C6
:10225000509112016417750711F490E080E0892B0A
:1022600019F081E0232B09F080E00895EF92FF92AE
:102270000F931F93CF93DF93EA01FC01E60FF71F43
:1022800002811381E480F5804F2D6E2DC8019DDF02
:1022900081110DC082E090E0998388838EEF9FEFDB
:1022A000DF91CF911F910F91FF90EF900895C8019A
:1022B00058DF882339F082E090E09983888388EFA3
:1022C0009FEFEECF1093180100931701E0921901D0
:1022D000F0921A0181E090E09983888390E080E099
:1022E000DFCFCF92DF92EF92FF920F931F93CF93A6
:1022F000DF937A01EC01C60FD71FC0901701D09071
:1023000018010091190110911A01412F602FC60187
:102310005CDF811110C082E090E0F701918380833F
:102320008AEF9FEFDF91CF911F910F91FF90EF9078
:10233000DF90CF900895C60114DF882341F082E03A
:1023400090E0F7019183808388EF9FEFEBCF4C8182
:102350005D816E817F819A8189818F3F41F082E02A
:1023600090E0F701918380838EEF9FEFDBCFE3E175
:10237000EC9D9001ED9D300D1124E0919202F091C1
:102380009302E20FF31F0190F081E02D2BE0029FFA
:10239000E00DF11D11240190F081E02D27E0129F46
:1023A000E00DF11D1124808391838B81828343830F
:1023B0005483658376831F5F10931A0181E090E058
:1023C000F7019183808390E080E0ACCFEF92FF92A1
:1023D0000F931F93CF93DF937A018C01060F171F82
:1023E000C0919202D0919302209781F021E030E0D9
:1023F000F801828193814091940250919502841753
:10240000950710F030E020E0232B71F482E090E09B
:10241000F701918380838EEF9FEFDF91CF911F9122
:102420000F91FF90EF90089543E1489F9001499FDD
:10243000300D1124C20FD31F94DE882341F082E0B7
:1024400090E0F7019183808388EF9FEFE6CFF8015A
:102450002481358120383105C8F687818111D6CF96
:102460004181842F90E08F7E009741F082E090E0E0
:10247000F7019183808386EF9FEFCFCF4F833E8319
:102480002D83268128871986223010F421E02887A1
:1024900021E030E0F70131832083BFCF88E090E076
:1024A000FA019183808390E080E00895FB018FEF33
:1024B000808381E181838FEF9FEF9383828380E824
:1024C00090E095838483168217820895FB018FEF35
:1024D000808391E0918382839383848384E38583E3
:1024E00081E090E0978386830895DF92EF92FF92D8
:1024F0000F931F93CF93DF93EA01FC01E60FF71FC1
:102500008181813071F082E090E0998388838FEF40
:102510009FEFDF91CF911F910F91FF90EF90DF9090
:10252000089582819381D4802581E680F78000918F
:102530009202109193020115110539F482E090E0A6
:10254000998388838CEF9FEFE4CF40919402509160
:1025500095028417950738F082E090E0998388838C
:102560008EEF9FEFD6CF892B39F082E090E09983F0
:10257000888386EF9FEFCDCF8D2D8D7FB1F72130F2
:10258000A1F781E0D11006C091E0E916F10431F025
:1025900080E004C0E2E0EE16F104D0F3882329F3D2
:1025A00090E080E0DEDD882339F082E090E09983DE
:1025B000888388EF9FEFADCFF801D38681E08487D1
:1025C000F686E586108A178681E090E099838883F5
:1025D00090E080E09ECF4CE050E06EE571E071CA83
:1025E0008F929F92BF92CF92DF92EF92FF920F93C2
:1025F0001F93CF93DF93EA01FC01E60FF71F82815F
:1026000093810481B580E0919202F091930230971A
:1026100091F482E090E0998388838CEF9FEFDF91C3
:10262000CF911F910F91FF90EF90DF90CF90BF90CF
:102630009F908F9008952091940230919502821777
:10264000930738F082E090E0998388838EEF9FEFC4
:10265000E6CF23E1289F6001299FD00C1124EC0DC7
:10266000FD1DE080F180E114F10499F282810817E8
:1026700048F78BE0089F80011124E00EF11EF7015E
:1026800080819181892B29F6BB20E1F2F7E0BF9E82
:1026900040011124C4010E94361FF70191838083F9
:1026A000E0919202F0919302EC0DFD1D0190F081FA
:1026B000E02DE00FF11F80819181009739F482E0D5
:1026C00090E0998388838DEF9FEFA9CFA40170E0FC
:1026D00060E00E9452318091920290919302C80E64
:1026E000D91EF60180819181080F191FF801B2826D
:1026F00081E090E09983888390E080E090CFAF9272
:10270000BF92CF92DF92FF920F931F93CF93DF93ED
:10271000EA01FC01E60FF71F82819381F4800091AA
:102720009202109193020115110581F482E090E06C
:10273000998388838CEF9FEFDF91CF911F910F9149
:10274000FF90DF90CF90BF90AF90089520919402BA
:10275000309195028217930738F082E090E09983D8
:1027600088838EEF9FEFE8CF2FEF2F0D2C3FA8F738
:1027700023E1289F6001299FD00C11240C0D1D1D01
:10278000F80180819181892B89F6FBE0FF9E500141
:102790001124C5010E94361FF80191838083E091C6
:1027A0009202F0919302EC0DFD1D808191810097C2
:1027B00039F482E090E0998388838DEF9FEFBCCF5E
:1027C000A50170E060E00E945231E0919202F09128
:1027D0009302EC0DFD1DF28281E090E099838883E5
:1027E00090E080E0A9CFCF92DF92EF92FF920F931B
:1027F0001F93CF93DF93860F971FFC0102811381F4
:102800008091920290919302892B81F082E090E076
:10281000FA01918380838CEF9FEFDF91CF911F911D
:102820000F91FF90EF90DF90CF900895C801B0E036
:10283000A0E00197A109B1098F3F9F4FA105B10504
:1028400040F082E090E0FA01918380838EEF9FEF69
:10285000E4CF7A0183E1809F6001819FD00C112435
:10286000C6010E94361FEC01009741F482E090E01F
:10287000F701918380838DEF9FEFCFCFA60170E0AA
:1028800060E00E945231D0939302C0939202109361
:1028900095020093940290E080E02FEF3FEF41E03B
:1028A00061E070E08017910741F481E090E0F7016A
:1028B0009183808390E080E0B0CF3A8B298B1B8698
:1028C0004C877E876D87188A1F8601966396EACFAC
:1028D000CF92DF92EF92FF920F931F93CF93DF93EC
:1028E000EC01D12CC12C10E000E0F12CE12C6A812C
:1028F00070E006171707BCF0660F771FAE014F5E3A
:102900005F4FC7010E949B1F009721F02FEF3FEF01
:102910003A8B298BDF91CF911F910F91FF90EF9010
:10292000DF90CF900895E881F981EC0DFD1D438182
:1029300054818D859E85489F9001499F300D589FF9
:10294000300D1124C90101960115110519F44F81AB
:1029500044FD049661E070E00E94E61DE816F90669
:1029600008F47C010F5F1F4F8BE0C80ED11CBFCF56
:10297000F894209190023091910281E02115310567
:1029800009F080E0232B09F0789408952F923F926C
:102990004F925F926F927F928F929F92AF92BF926F
:1029A000CF92DF92EF92FF920F931F93CF93DF931B
:1029B0003C01660E771EF301828193814C01B12C9C
:1029C000A12CC0919202D0919302209769F021E04E
:1029D00030E060919402709195028617970710F08D
:1029E00030E020E0232BD1F482E090E0FA019183E3
:1029F00080838EEF9FEFDF91CF911F910F91FF901A
:102A0000EF90DF90CF90BF90AF909F908F907F908E
:102A10006F905F904F903F902F90089580921B0190
:102A200090921C01A0921D01B0921E0163E1689F6B
:102A30009001699F300D1124C20FD31FF3018181D2
:102A4000833040F082E090E0FA019183808386EF4A
:102A50009FEFD1CF2A012B813C81232BF1F42881D8
:102A600039819F8191FF2EC0232B09F46FC02091E3
:102A700097029A81422F490F5527551FBA0141E00D
:102A800050E06138710514F050E040E0452B09F446
:102A90005DC02A87920F909397028150823008F48C
:102AA00081C066DF882309F4D8C0F30181818130B9
:102AB00009F48DC008F47BC0823009F4C6C090E0F0
:102AC00080E0ADC0232B09F441C0209196029A8189
:102AD000E22FE90FFF27FF1F41E050E0ED3FF10536
:102AE00014F050E040E0452B89F12A87920F909333
:102AF0009602D3CFA081B181A20FB31F11966C9122
:102B0000060F111D0196295F3F4F8417950794F317
:102B10008D859E85089F1001099F300C189F300CF1
:102B20001124C114D104D1F48F8184FF17C00E94F5
:102B3000341EF5E02F0E311C21E08215930508F4B8
:102B400020E0A701455F5F4F21110EC082E090E0B9
:102B5000F2019183808387EF9FEF4DCF0E94341E57
:102B60002FEF221A320AE8CF88819981E80EF91EE8
:102B7000F70114830383FFEFCF1ADF0A7A018A81FA
:102B80008C151D0409F00CF48CCFE881F981EE0D51
:102B9000FF1D428150E030E020E010E000E090E0D6
:102BA00080E0B3CFF12CE12CD12CC12CE8CF81E017
:102BB00090E09C838B83ECDA882309F480CF81E05A
:102BC00090E00E94430D80E40E94510D78CF8989E6
:102BD0009A89019661F083E090E09C838B8382E088
:102BE00090E00E94430D80E40E944B0D68CF8D81E0
:102BF0009E81209111013091120182179307D1F427
:102C00006091150170911601AE014F5E5F4F80918A
:102C10001301909114010E94BA200097E1F2789478
:102C200022E030E0F20131832083892B99F08DEF8F
:102C30009FEFE1CE89288A288B2869F6892B59F6DF
:102C4000CE0146DE188A1F86E8CF82E090E09C83A2
:102C50008B8335CF90E080E0CECE82E090E0F20131
:102C60009183808385EF9FEFC6CE8F929F92AF9224
:102C7000BF92CF92DF92EF92FF920F931F93CF9369
:102C8000DF93EA018C01060F171FF8018181833061
:102C900098F082E090E09983888386EF9FEFDF9140
:102CA000CF911F910F91FF90EF90DF90CF90BF9049
:102CB000AF909F908F90089580919202909193028F
:102CC000892B61F081E090E020919402309195028F
:102CD000232B11F490E080E0892B39F482E090E01E
:102CE000998388838EEF9FEFDACF42DE882309F441
:102CF000DFC0F8018181813009F495C0E8F08230AD
:102D000099F42091940230919502E0919202F09111
:102D1000930290E080E041E050E02817390709F085
:102D2000BDC036DA811117C0789481E090E09983B4
:102D3000888390E080E0B3CF209194023091950297
:102D4000E0919202F091930290E080E041E050E047
:102D50002817390741F481E090E00E94430D80E498
:102D60000E94510DE1CF63817481672B11F0548370
:102D7000438301967396ECCFE0919202F091930217
:102D8000E00FF11F2381348122303105D9F42189EC
:102D900032892F3F3F4FB1F4258136814091110197
:102DA000509112012417350761F5AF014F5E5F4F57
:102DB0006091150170911601809113019091140199
:102DC0000E94BA20EFEFCE1ADE0AEE0AFE0A0D5E6E
:102DD0001F4F409194025091950270E060E0C4163C
:102DE000D506E606F7063CF5009731F27894892B74
:102DF00009F49BCF82E090E0998388838DEF9FEF69
:102E00004ECFC114D104E104F104E1F6232BD1F635
:102E1000CF015EDDE0919202F0919302E00FF11F8D
:102E2000108A1786CFCF10E000E090E080E0C12C40
:102E3000D12C7601CECF0097C9F610E000E0812CAE
:102E4000912C540183E0E82EF12C1AC0E0919202FB
:102E5000F0919302E00FF11F83819481029749F46E
:102E6000F482E38282E090E00E94430D80E40E94BD
:102E70004B0DFFEF8F1A9F0AAF0ABF0A0D5E1F4F5F
:102E80008091940290919502B0E0A0E08816990696
:102E9000AA06BB06DCF290E080E0A8CF63817481D3
:102EA0006230710511F4548343830196739635CFD4
:102EB00082E090E09983888385EF9FEFF0CE0097C2
:102EC000B9F48FEFFB01808320911B0130911C012D
:102ED00043E1429FC001439F900D1124E091920273
:102EE000F0919302E80FF91F8285FB018183089519
:102EF0000C94FC0C88E090E0FA019183808390E0D0
:102F000080E008951092910210929002E2E9F2E0BE
:102F100086E0DF011D928A95E9F78BEE92E19093AE
:102F20008F0280938E02089580918E0290918F027D
:102F300008952F923F924F925F926F927F928F925D
:102F40009F92AF92BF92CF92DF92EF92FF920F9338
:102F50001F93CF93DF93CDB7DEB760970FB6F8948A
:102F6000DEBF0FBECDBFF894E0919002F0919102C8
:102F70003196F0939102E09390027894A09192029E
:102F8000B0919302BA83A983109709F4FAC1E09132
:102F90009402F0919502EF2B09F4F3C128874B8737
:102FA0005C876D877E879A878987B88BAF87312C3E
:102FB000212CF12C512C412C80919402909195025E
:102FC0002816390610F4FF2029F1F8948091900218
:102FD000909191020197909391028093900278943E
:102FE000C20160960FB6F894DEBF0FBECDBFDF9171
:102FF000CF911F910F91FF90EF90DF90CF90BF90F6
:10300000AF909F908F907F906F905F904F903F9088
:103010002F900895B10190E080E087D4682EEF856D
:10302000F889878181FD3DC0838194810397C9F52B
:10303000258136813C832B8389859A85281739071A
:1030400081F5C101EFD8782E8823A9F1AF85B88921
:103050001F968D919C915097019621E01D964D9160
:103060005C918417950709F020E02F83B12CA12CE7
:10307000EF85F88982818A151B0419F014F0FF206E
:10308000E9F0F885FF2309F46CC1AF85B889509643
:103090001C921E921F97662021F0B10190E080E003
:1030A00046D4FFEF2F1A3F0A2F8538892D5E3F4FF8
:1030B000388B2F8781CFB1E0BF83D8CFBED49E831A
:1030C0008D83E885EE23E9F0772009F43CC1AF85D4
:1030D000B8891F968D919C91892B79F0BBE0BA9DA0
:1030E000C001BB9D900D1124AF85B889ED91FC9175
:1030F000E80FF91F85819681F2D6BFEFAB1ABB0AA4
:10310000B7CF81E0772039F0EF85F88927853089BE
:10311000232B09F080E0F82EE12CA114B10439F43E
:10312000AF85B8891796EC90E4FAEE24E0F8BBE09E
:10313000BA9D6001BB9DD00C1124882309F424C1E1
:10314000AF85B889ED91FC911197EC0DFD1D438180
:1031500054811D962D913C91429FC001439F900D3B
:10316000529F900D1124E1105DC0019690878783D6
:1031700061E070E08781908529D5EF85F889218904
:103180003289008111810C0D1D1D2F3F320709F47A
:103190004BC0BC01C9010E94FB20D80116969C932C
:1031A0008E931597AF85B889ED91FC911197EC0D31
:1031B000FD1D058116810115110509F4CDC0ED81B4
:1031C000FE810E0F1F1F1A968C918A0DD8018C93C9
:1031D000E1102FC00F5F1F4FAF85B889ED91FC91B3
:1031E000EC0DFD1D12870187AF85B889ED91FC912B
:1031F000EC0DFD1D85819681892B09F4A4C0809179
:103200001101909112012B813C812817390709F493
:1032100065C0772011F001851285912C812C1A82CE
:1032200019824AC00596A2CF21D6F80196838583DC
:10323000B9CF8B859C85AD85BE85F801818392834E
:10324000A383B4830B5F1F4FC7CFE080F180E80CEE
:10325000F91CD70113966D917C9114978C918F3F37
:1032600009F473C0E1E0F0E002C0EE0FFF1F8A95A1
:10327000E2F7CF01092E000CAA0BBB0BFB0140812A
:1032800051816281738184239523A623B72321E092
:10329000892B8A2B8B2B09F420E0D8012C93D701A2
:1032A00011968C91080F111DE981FA813196FA83EC
:1032B000E983F7E08F0E911CAF85B889ED91FC9101
:1032C000EC0DFD1D828129813A818217130611F0D0
:1032D0000CF0BBCF772011F0128701873F81332399
:1032E00091F1AF85B889ED91FC91EC0DFD1D61E088
:1032F00070E0878190856AD4AF85B889ED91FC91A3
:10330000EC0DFD1DE780F08445815681E1E0F0E0A1
:10331000662011F0F0E0E0E00D811E819C01B1011A
:10332000882799278E1B9F0B8BD32C01892B59F053
:10333000EF85F88980819181C80ED91ED601159636
:103340008D919C91CCD5F12CD8CEF701418150E0E4
:10335000C8010E944931A3CF86EF482E55245A94C4
:10336000CCCEEF85F889878590890196908B8787E9
:10337000258536858217930709F08DCE108A17862A
:103380008ACE512C412C21CE10E000E02DCF2F927F
:103390003F924F925F926F927F928F929F92AF92E5
:1033A000BF92CF92DF92EF92FF920F931F93CF9332
:1033B000DF93809192029091930210E000E0892BBC
:1033C000A9F0D6DA0AEF1FEF882381F0209094024B
:1033D00030909502C0919202D0919302D12CC12CD1
:1033E00010E000E02C143D04A9F47894C801DF91AA
:1033F000CF911F910F91FF90EF90DF90CF90BF90F2
:10340000AF909F908F907F906F905F904F903F9084
:103410002F900895C6010E941211882309F18B8113
:103420009C810397E9F48F859889892BC9F0B601AF
:1034300090E080E07AD221E030E0882311F030E0A3
:1034400020E044245524421A530AB12CA12C912C7B
:10345000812C8A818815190409F038F4188A1F868E
:103460004FEFC41AD40A6396BDCFE881F981EA0D03
:10347000FB1D85819681892BA1F161E070E0878138
:103480009085A4D33C01D9D28C01E881F981EA0D61
:10349000FB1D8185928525813681200F311FAC016E
:1034A000421B530B9A0147815085421B530B70E01E
:1034B00060E00E945231E881F981EA0DFB1DE7804E
:1034C000F084458156819301B601C201B9D28C01C5
:1034D000892B39F0E881F981EA0DFB1D8581968100
:1034E000FED45FEF851A950A8BE0A80EB11CB1CF10
:1034F0003FCA789408952F923F924F925F926F92B5
:103500007F929F92AF92BF92CF92DF92EF92FF9203
:103510000F931F93CF93DF9300D000D000D0CDB78F
:10352000DEB70091920210919302992493940115B1
:10353000110509F43EC0A0909402B090950218DAEB
:10354000982E8823B1F11092930210929202109259
:1035500095021092940210929602109297028FEFA9
:103560009FEFDC0180931B0190931C01A0931D0130
:10357000B0931E0178947AD31E830D83C12CD12C75
:103580007601C501B0E0A0E089839A83AB83BC8358
:1035900022242A94322C89819A81AB81BC81C8165D
:1035A000D906EA06FB06F4F0C80199D480E40E942B
:1035B000510D892D26960FB6F894DEBF0FBECDBFF4
:1035C000DF91CF911F910F91FF90EF90DF90CF90FF
:1035D000BF90AF909F907F906F905F904F903F9083
:1035E0002F900895AD81BE8115968D919C9116976F
:1035F000209111013091120182179307D1F4519655
:103600008D919C91E6D5ED81FE8180819181B12CD7
:10361000A12C412C512C3201892B89F5BFEFCB1AFB
:10362000DB0AEB0AFB0AED81FE817396FE83ED83D4
:10363000B2CFC114D104E104F10429F7892B19F7A1
:10364000ED81FE81818992898F3F980709F021D50C
:10365000AD81BE8152963C922E925197D4CF8A0D65
:103660009B1DDC018D919C91009709F038D4BFEF30
:103670004B1A5B0A6B0A7B0AEBE0AE0EB11CAD8104
:10368000BE818D919C91119712964C9150E070E003
:1036900060E044165506660677060CF320D4BECFCC
:1036A000CF93DF93EA0127DF811109C082E090E028
:1036B0009983888385EF9FEFDF91CF91089581E013
:1036C00090E00E94430D81E090E09983888390E030
:1036D00080E0F2CF10DF10928F0210928E020895D8
:1036E00042E050E066EA71E00C94610DFF920F93A6
:1036F0001F93CF93DF938A01EC01C60FD71FF98088
:10370000B4D20897F816190671F068F082E090E0DC
:10371000F801918380838EEF9FEFDF91CF911F910E
:103720000F91FF9008956C817D818E819F814B81E7
:103730000E94F80F811108C082E090E0F8019183A7
:10374000808384EF9FEFE9CFF9800E94F30F4F2D24
:1037500050E0BE01685F7F4F0E94493189810E941D
:10376000621081E090E0F8019183808390E080E036
:10377000D4CFDF92EF92FF920F931F93CF93DF93FB
:103780008A01EC01C60FD71F0E94F30F7C01D9807C
:103790006CD2DD2059F0029721E030E0D8161906EE
:1037A00019F010F030E020E0232B79F482E090E073
:1037B000F801918380838EEF9FEFDF91CF911F916E
:1037C0000F91FF90EF90DF900895EF2841F482E091
:1037D00090E0F8019183808384EF9FEFEECFF98032
:1037E0000E94F30F4F2D50E0BE016E5F7F4F0E948D
:1037F000493189810E94621081E090E0F801918353
:10380000808390E080E0D9CF80E79BE1909399029C
:10381000809398020895809198029091990208955A
:103820000895FC0111821082938382830895DB0145
:103830001D921C92DC011296ED91FC9113977183FD
:10384000608313967C936E9312970895FC01808198
:103850009181DB018D939C93A081B181109741F000
:103860008D919C9191838083892B11F4F383E28362
:103870000895FC0180819181DB018D939C93892BBC
:1038800011F473836283718360830895FC01118254
:103890001082938382830895CF93DF9300D0CDB7B6
:1038A000DEB71A821982F894BE016F5F7F4F8FE9ED
:1038B00092E0CCDF89819A81009709F010D3898149
:1038C0009A81892B89F7BE016F5F7F4F83EA92E06F
:1038D000BDDF89819A81009709F001D389819A819E
:1038E000892B89F778940F900F90DF91CF910895ED
:1038F000CF93DF9300D0CDB7DEB71A821982F89448
:10390000BE016F5F7F4F8BE992E0A0DF89819A81D2
:10391000009709F0E4D289819A81892B89F77894FC
:103920000F900F90DF91CF91089581E0089590E07E
:1039300080E00895EF92FF920F931F93CF93DF9350
:1039400000D0CDB7DEB71A82198280919A0207EFB4
:103950001FEF8823A1F1F894BE016F5F7F4F83EAC8
:1039600092E074DF789489819A81EE24E394F12CBB
:10397000892B51F4F894BE016F5F7F4F8FE992E07D
:1039800065DF7894F12CE12C89819A810EEF1FEF8D
:103990000097A9F0FC014281538164E070E06CD68D
:1039A0008C01892B61F0F89469817A81C701880FB5
:1039B000991F880F991F81569D4F5BDF7894C8012E
:1039C0000F900F90DF91CF911F910F91FF90EF908B
:1039D00008950F931F93CF93DF9300D000D0CDB7FE
:1039E000DEB71C821B821A82198280919A0207EF2D
:1039F0001FEF8823C1F0AE014D5F5F4F64E070E0C0
:103A0000CE010196ACD68C01892B69F4E981FA814B
:103A10008B819C8193838283F89469817A818BE97D
:103A200092E005DF7894C8010F900F900F900F90EF
:103A3000DF91CF911F910F910895B1D7049608950A
:103A40008F929F92AF92BF92CF92DF92EF92FF92AE
:103A50000F931F93CF93DF9300D0CDB7DEB71A82B9
:103A60001982BC016F5F7F4F6330710598F0AA2403
:103A7000AA94BA2CC5010F900F90DF91CF911F919E
:103A80000F91FF90EF90DF90CF90BF90AF909F90FD
:103A90008F9008954115510551F3480159018A014C
:103AA0006C01CBDF8815990511F7E114F104F9F2E7
:103AB0008E0D9F1DA816B906D0F280919A02882318
:103AC000F1F0F894B501645071099701AE014F5FB0
:103AD0005F4FC8010496D8D65C01892B71F48981A7
:103AE0009A81F80193838283C601880F991F880FFA
:103AF000991FB80181569D4F9ADE7894BBCF87EF0E
:103B0000A82EBB24BA94B6CFAF92BF92CF92DF92C9
:103B1000EF92FF920F931F93CF93DF9300D0CDB717
:103B2000DEB71A821982892B09F047C06115710529
:103B300009F443C04115510509F43FC02115310571
:103B400009F43BC001151105C1F180919A02882347
:103B5000B9F179016A015B01F894BE016F5F7F4F93
:103B60008BE992E073DE789489819A81009759F10C
:103B7000DC0112966D917C91A80104969ED68C0171
:103B8000E981FA81D501ED93FC93828193810496BA
:103B9000F6019183808351DFD7018D939C93C801F7
:103BA0000F900F90DF91CF911F910F91FF90EF90A9
:103BB000DF90CF90BF90AF9008950FEF1FEFEFCF42
:103BC00007EF1FEFECCF0EEF1FEFE9CFCF93DF939F
:103BD000EC01672B71F4ECD68C179D0760F0DFD6F3
:103BE0002496C80FD91FDED68C0F9D1FDF91CF9171
:103BF0000895DBD6F1CF90E080E0F8CF0F931F93CC
:103C0000CF93DF9320919A0221112BC08B01EC01FD
:103C10008FE992E006DE83EA92E003DE8BE992E030
:103C200000DE97D00097C1F4C3D670E060E0CEDF2D
:103C30004FE151E062E070E07ED1009769F480913D
:103C40001F0190912001C6D6B801CE01FBD4009788
:103C500019F421E020939A02DF91CF911F910F91E7
:103C6000089584EF9FEFF8CFA0C6A2C6CF93DF934D
:103C7000A2D6EC01892B11F40FDE3ADECE01DF91E2
:103C8000CF910895CF93DF9396D6EC01892B09F459
:103C900003DECE01DF91CF91089580911F019091B5
:103CA00020010895CF93DF9380919A02D0E0C0E085
:103CB0008823D1F094D6EC01892BB1F4EDDD18DE28
:103CC00080911F0190912001E4D1E5D2EC01892B74
:103CD00059F48FE992E0DADD83EA92E0D7DD8BE9EF
:103CE00092E0D4DD10929A02CE01DF91CF91089537
:103CF000EF92FF920F931F93CF93DF93EC017A0122
:103D00008B010F5F1F4F0E9DA0010F9D500D1E9D3B
:103D1000500D112470E060E00E94523190E080E08C
:103D2000F0E0E0E02FEFE816F90639F4DF91CF91EB
:103D30001F910F91FF90EF9008951A8219822883A6
:103D4000309711F0D283C1830196FE01C00FD11FBD
:103D5000EACFCF92DF92EF92FF920F931F93CF9310
:103D6000DF9303EA13E00C7F43E050E061E271E08F
:103D700087E291E014D481E2E82E81E0F82E97E208
:103D8000C92E91E0D92EC2E0D4E0D7014D915D91CA
:103D90007D01F601619171916F01198308835D8343
:103DA0004C835B834A837F836E839B012F5F3F4FEE
:103DB000249FC001259F900D349F900D1124998759
:103DC00088870115110511F0C80192DF8885998552
:103DD000080F191F2A96F7E2EF16F1E0FF06A9F681
:103DE000E9EAF2E087EFDF011D928A95E9F7109288
:103DF000A8021092A702109221041092200410929F
:103E0000250410922404109223041092220410928C
:103E1000270410922604109229041092280410926C
:103E20002B0410922A0410922F0410922E04109248
:103E30002D0410922C041092310410923004109230
:103E40003304109232041092FF031092FE0310927A
:103E500001041092000490E080E0DF91CF911F9167
:103E60000F91FF90EF90DF90CF9008950097F1F0C1
:103E7000F894A7E2B1E0E2E0F4E030E020E04D9118
:103E80005D9148175907A8F04281538141155105AA
:103E900081F08AE0829FF001839FF00D1124EE5F94
:103EA000FB4F80819181009759F4789490E080E0F5
:103EB00008952F5F3F4F3A962330310501F7F5CF34
:103EC000DC0111966D917C917183608341505109A1
:103ED00053834283FC012193CF0178940895009786
:103EE00049F1DC018E91853041F4E0910004F091BC
:103EF00001043097F9F0CD0109948530D8F4282FCA
:103F000030E0F8948FEF8C938AE0829FF001839FDA
:103F1000F00D1124EE5FFB4F8081918112969C93EE
:103F20008E931197B183A0838281938101969383AD
:103F3000828378940895CF92DF92EF92FF920F934D
:103F40001F93CF93DF939C018CEA92E08C7F411505
:103F5000510509F49BC02115310509F497C061157D
:103F6000710509F493C07A01AB01B9016D5F7F4F10
:103F70006C7F9B012F5F3F4F249F8001259F100D79
:103F8000349F100D1124F8942091200430912104C5
:103F9000232B59F42091280430912904211531054F
:103FA00069F12017310708F058C020912A04309198
:103FB0002B04232B91F42091280430912904820FA3
:103FC000931F20913204309133042115310509F4F7
:103FD00041C02017310708F056C07894CFEFDFEFCB
:103FE00086EF9FEFF701D183C083DF91CF911F91BF
:103FF0000F91FF90EF90DF90CF900895C3E0D0E055
:10400000C090A702D090A80224EF30E02C193D09FF
:104010002017310710F32AE02C9FF0012D9FF00D9F
:104020001124EE5FFB4F9183808355834483538338
:1040300042837783668311870087009709F058DEF3
:104040000C0D1D1D1093A8020093A702789490E018
:1040500080E0C8CFC4E0D0E0D3CFC3E0D0E02AE016
:104060002C9FF0012D9FF00D1124EE5FFB4F9183EB
:104070008083558344835383428377836683009789
:1040800029F336DEE3CFC4E0D0E0E9CF8FEF9FEF36
:10409000ACCF9C010397029708F069C0F89484E0C4
:1040A0009AE0482F50E0241735070CF44DC091E0FA
:1040B0008AE0829FF001839FF00D1124EE5FFB4F99
:1040C0001182108215821482138212821782168244
:1040D0009923B1F18091200490912104892BA9F4B6
:1040E00020912804309129042115310571F0809127
:1040F000A7029091A802821B930B9093A802809331
:10410000A702109229041092280480912A04909109
:104110002B04892BA9F4209132043091330421150A
:10412000310571F08091A7029091A802821B930B38
:104130009093A8028093A702109233041092320445
:10414000789490E080E00895949FF001959FF00DA1
:104150001124EE5FFB4F40815181452B31F44085A6
:104160005185452B11F481509CCF90E0A1CF8FEF6A
:104170009FEF08954115510549F1009739F16115F7
:10418000710521F1F8942091FE033091FF03232B58
:10419000B9F42091000430910104232B89F4909309
:1041A000FF038093FE0370930104609300047894EE
:1041B00025E030E090E080E0FA013183208308952B
:1041C00078942FEF3FEF86EF9FEFF6CF8FEF9FEFC3
:1041D0000895059769F4F8941092FF031092FE0376
:1041E0001092010410920004789490E080E0089509
:1041F0008FEF9FEF08956115710519F4F0E0E0E08D
:1042000011C08530910581F4E091FE03F091FF0328
:104210003097A1F3CB0101960995009779F3FC0142
:1042200085E08193CF0108959C012350310922300C
:10423000310520F72AE0289FD001299FB00D1124D5
:10424000AE5FBB4F2D913C911197232BB9F216967F
:104250002D913C9117972617370780F2F894129604
:104260002D913C9113972115310529F0ED91FC9189
:104270001197309711F47894C1CF418152811196F2
:104280005C934E932150310913963C932E931297D1
:1042900081937894C7CFE0EAF3E08EE5DF011D92C9
:1042A0008A95E9F7E9EAF2E087EFDF011D928A9546
:1042B000E9F71092A8021092A702E2E0F4E082E38C
:1042C000DF011D928A95E9F7EEEFF3E084E0DF016C
:1042D0001D928A95E9F790E080E00895CF93DF93EF
:1042E000C0912D01D0912E01CF3FDC0759F405D4A8
:1042F00090932E0180932D0197FF09C0D0932E013A
:10430000C0932D0184EF9FEFDF91CF91089590E04E
:1043100080E0FACF8230910528F48093340490E055
:1043200080E008958FEF9FEF08954F925F926F9214
:104330007F92AF92BF92CF92DF92EF92FF920F9354
:104340001F93CF93DF9300D0CDB7DEB71A821982C7
:10435000009709F479C06115710509F475C02091C1
:104360002D0130912E0107EF1FEF2F3F3F4F09F432
:1043700045C06B015C01412C512C3201F12CE12C28
:1043800010E000E09E012F5F3F4FA6014E195F092C
:10439000B5016E0D7F1D80912D0190912E0112D4DB
:1043A000892B09F04BC089819A81009741F4E1146F
:1043B000F10429F420913404222309F442C0E80EC8
:1043C000F91EEC14FD04D0F480E8481684E8580681
:1043D0008EE16806710420F560E070E0CB010E9478
:1043E000562E2AE0420E511C611C711C0A3F4FEFF1
:1043F000140721F0043F8FEF1807A1F4C8010F90B4
:104400000F90DF91CF911F910F91FF90EF90DF9070
:10441000CF90BF90AF907F906F905F904F90089536
:1044200001EF1FEF81E090E0013F2FEF120711F045
:1044300090E080E0892B09F4A5CFE0CF04EF1FEFD7
:10444000DDCF0AEF1FEFDACF0FEF1FEFD7CF4F927D
:104450005F926F927F92AF92BF92CF92DF92EF9274
:10446000FF920F931F93CF93DF9300D0CDB7DEB7AA
:104470001A821982009709F479C06115710509F44F
:1044800075C020912D0130912E0107EF1FEF2F3FB6
:104490003F4F09F445C06B015C01412C512C3201A6
:1044A000F12CE12C10E000E09E012F5F3F4FA601B0
:1044B0004E195F09B5016E0D7F1D80912D01909100
:1044C0002E0133D3892B09F04BC089819A81009743
:1044D00041F4E114F10429F420913404222309F475
:1044E00042C0E80EF91EEC14FD04D0F480E8481632
:1044F00086E9580688E96806710420F560E070E0F6
:10450000CB010E94562E2AE0420E511C611C711CE8
:104510000E3F4FEF140721F0043F8FEF1807A1F46F
:10452000C8010F900F90DF91CF911F910F91FF90D5
:10453000EF90DF90CF90BF90AF907F906F905F90A3
:104540004F90089502EF1FEF81E090E0023F2FEFC0
:10455000120711F090E080E0892B09F4A5CFE0CF9D
:1045600004EF1FEFDDCF0EEF1FEFDACF0FEF1FEFDE
:10457000D7CF80912D0190912E018F3F980749F060
:10458000B3D2892B49F48FEF9FEF90932E01809344
:104590002D0190E080E0089584EF9FEF0895CF9281
:1045A000DF92EF92FF920F931F93CF93DF9321E05F
:1045B0004115510509F020E04150510921112CC04D
:1045C000DC01FB01D12CC12C21E022C03FEFC31A3A
:1045D000D30A7D010D911D91E701EA80FB80E01671
:1045E000F106A8F420813181E280F380F182E0823B
:1045F00033832283ED90FC9011979D012250310965
:10460000E901F982E88211961C930E9320E032961C
:10461000C416D506D8F2D2CFDF91CF911F910F915A
:10462000FF90EF90DF90CF900895FC01680F791F05
:1046300090E080E0E617F70709F408952191820FD2
:10464000911DF8CF20913504211113C047DE00974A
:1046500091F410923B0410923A0410923904109293
:104660003804109237041092360421E02093350468
:10467000089584EF9FEF0895AF92BF92CF92DF929B
:10468000EF92FF920F931F93CF93DF93009709F45C
:1046900060C04630510508F45CC020913504C7EF76
:1046A000DFEF222309F449C08C01060F171FF80120
:1046B000C080D180C114D10409F44EC096012A5F94
:1046C0003F4F4217530708F447C07C0180913A04DA
:1046D00090913B0493838283B6016C5F7F4F5801B6
:1046E000A60EB71EC801A1DFF5019183808364E0A7
:1046F00070E0C8011ADEEC01892BF9F481E090E04A
:1047000009DEB601C801049610DEEC01892B91F494
:1047100062E070E0C50109DEEC01892B59F4C701A4
:10472000DEDB80913A0490913B04019690933B0428
:1047300080933A0490E080E0EDDDCE01DF91CF91EF
:104740001F910F91FF90EF90DF90CF90BF90AF90AF
:104750000895CFEFDFEFF1CFC9EFDFEFEECF6F922C
:104760007F928F929F92AF92BF92CF92DF92EF9201
:10477000FF920F931F93CF93DF9300D000D0CDB75C
:10478000DEB7009709F47AC04115510509F476C0E7
:104790002091350407EF1FEF222309F44DC03A01A1
:1047A0007B015C0164E070E0CE01019650DE8C017B
:1047B000892B09F041C009811A810115110509F4FD
:1047C0005AC0480186E0880E911CB701680D791D1A
:1047D00080912F01909130010EDD6C01009709F45A
:1047E00050C0A70170E060E00E94523189819A8137
:1047F000AB81BC81EC0CFD1CF70181939193A193DB
:10480000B1937F0181E090E085DDB801C7011FDE33
:10481000892B31F562E070E0C701800F911F17DE30
:104820008C01892BE9F490E080E074DDF501D18200
:10483000C082F30191828082C8010F900F900F9087
:104840000F90DF91CF911F910F91FF90EF90DF902C
:10485000CF90BF90AF909F908F907F906F90089572
:1048600090E080E057DDF50111821082F3011182A2
:104870001082C60134DB09EF1FEFDECF0FEF1FEF11
:10488000DBCF06EF1FEFD8CF0097A1F04115510500
:1048900089F02115310571F0F90136966E177F0701
:1048A00048F0DC012D933C93DA01ED93FC9390E00A
:1048B00080E008958FEF9FEF0895AF92BF92CF925F
:1048C000DF92EF92FF920F931F93CF93DF930097A6
:1048D00009F45FC04115510509F45BC065307105ED
:1048E00008F457C020913504C7EFDFEF222391F180
:1048F000DC01CD90DC9011971296ED91FC91960120
:104900002A5F3F4FC9EFDFEF2617370719F5C09130
:104910003604D0913704209749F521E030E03093F8
:104920003704209336047A018C01F0933904E09324
:1049300038045601B4E0AB0EB11CB50176DE0A0DA9
:104940001B1DF801208131818217930729F5D701BA
:10495000CD92DC92CE01DF91CF911F910F91FF900C
:10496000EF90DF90CF90BF90AF90089520913804E2
:10497000309139042F5F3F4FCCEFDFEFE217F307A1
:1049800090F2CBEFDFEF2E173F0768F2D0E0C0E0E8
:10499000CACFCFEFDFEFDECFC3EFDFEFDBCF84E0B7
:1049A00090E0089582E090E008958CEF9FEF0895E5
:1049B00080E290E0089510923B0410923A04109225
:1049C000390410923804109237041092360490E0A3
:1049D00080E008959093300180932F010895809195
:1049E0003504882391F0C5DD009789F410923B04CB
:1049F00010923A041092390410923804109237043D
:104A00001092360410923504089590E080E00895E5
:104A1000009749F06115710531F0FC011182108297
:104A2000FB01118210820895F3CF26E030E040E8C8
:104A300055E260E070E090E080E00C9465011F9228
:104A40000F920FB60F9211242F933F934F935F93C2
:104A50006F937F938F939F93AF93BF93EF93FF9346
:104A60008BEC93EF9093850080938400BFD0FF91EF
:104A7000EF91BF91AF919F918F917F916F915F91D6
:104A80004F913F912F910F900FBE0F901F9018954F
:104A90008BEC93EF9093850080938400AFE6B0E0B9
:104AA0008C918E7F8C93E0E8F0E080818C7F808316
:104AB000E1E8F0E08081877E80838081856080836B
:104AC00080818D7F80838C9181608C930895EFE647
:104AD000F0E0808190819E7F90838170089581E0D5
:104AE000089510923C04089568EE73E080E090E031
:104AF0000E94562E90E080E0089526E030E040E0ED
:104B000052EC61E070E090E080E00E94650183E19A
:104B100095E00E941D2F892B29F083E195E00E94EA
:104B2000372FF5CF90E080E00895CF92DF92EF929B
:104B3000FF920F931F93CF93DF936B017A01E901EB
:104B40001982188283E195E00E941D2F892B79F14B
:104B50008601CC24C39482E0D82E80913C0481113C
:104B600011C083E195E00E94372F0297B1F7C09200
:104B70003C04F801D1928F01888199810196998333
:104B80008883EBCF888199818E159F0580F483E11E
:104B900095E00E94372F8F3F9807A1F3F80181938A
:104BA0008F0188819981019699838883EBCF90E06A
:104BB00080E0DF91CF911F910F91FF90EF90DF90F8
:104BC000CF9008950F931F93CF93DF93EA0189014C
:104BD00083E195E00E94CB30F801D183C08390E05F
:104BE00080E0DF91CF911F910F910895CF92DF92D6
:104BF000EF92FF92CF93DF9380913D0491E0980F65
:104C000090933D04882379F021E030E030933F0415
:104C100020933E0480933D04DF91CF91FF90EF906D
:104C2000DF90CF9008957894C0913201D0913301F4
:104C30006E8D7F8D88A199A1A8D120E030E040E859
:104C40005FE459D26B017C016A8D7B8D8C8D9D8DCB
:104C50009CD19B01AC01C701B6019BD06AD16B010D
:104C60007C010E941A03B701A60190E080E00E9437
:104C70008C02F89480913D048150CCCF0F931F9308
:104C8000CF93DF931092DB051092DA050E948C2EF1
:104C9000CCDEC0913201D09133011982188262E3D7
:104CA00070E080E090E00E940F0370E060E090E030
:104CB00080E00E949001009709F03AC00E94D80459
:104CC000F8947894BE016A5D7F4F8A819B810E942F
:104CD0009301892B59F46FEF7FEFCB010E942202E1
:104CE0000E940903882311F081E08AA7F894D0DE9E
:104CF0000E940C03882311F080E008C00E94090381
:104D00008111FACF81E09AA59111F6CF8093DA054F
:104D100078940E943E0D8C0178948091DA0581117F
:104D20000CC00E94DE060E94EE02F89490E080E043
:104D3000DF91CF911F910F9108950E94EC020E9484
:104D40000C038823D9F081E08093DB059091DB058B
:104D500081E0911180E08093DA058091DB0581117B
:104D6000B6DE0130110529F40E943E0D892B09F4AD
:104D7000B8DE0E943E0D8C01B2DECFCF0E94090347
:104D80008111E1CF81E09AA59111DECF80E0DCCFE7
:104D90005058BB27AA270ED070C161D130F066D120
:104DA00020F031F49F3F11F41EF456C10EF4E0954B
:104DB000E7FB4CC1E92F72D180F3BA176207730782
:104DC0008407950718F071F49EF58AC10EF4E095FA
:104DD0000B2EBA2FA02D0B01B90190010C01CA01B5
:104DE000A0011124FF27591B99F0593F50F4503E60
:104DF00068F11A16F040A22F232F342F4427585F52
:104E0000F3CF469537952795A795F0405395C9F769
:104E10007EF41F16BA0B620B730B840BBAF0915021
:104E2000A1F0FF0FBB1F661F771F881FC2F70EC0C0
:104E3000BA0F621F731F841F48F487957795679593
:104E4000B795F7959E3F08F0B3CF9395880F08F07C
:104E50009927EE0F979587950895D4D008F481E0AF
:104E600008950CD00AC102D140F0F9D030F021F4FD
:104E70005F3F19F0EBC0511134C1EEC00FD198F370
:104E80009923C9F35523B1F3951B550BBB27AA27CB
:104E900062177307840738F09F5F5F4F220F331F3D
:104EA000441FAA1FA9F333D00E2E3AF0E0E830D009
:104EB00091505040E695001CCAF729D0FE2F27D00C
:104EC000660F771F881FBB1F261737074807AB07DA
:104ED000B0E809F0BB0B802DBF01FF2793585F4F4F
:104EE0002AF09E3F510568F0B1C0FBC05F3FECF374
:104EF000983EDCF3869577956795B795F7959F5F14
:104F0000C9F7880F911D9695879597F90895E1E067
:104F1000660F771F881FBB1F621773078407BA07C6
:104F200020F0621B730B840BBA0BEE1F88F7E09521
:104F30000895BCD088F09F5790F0B92F9927B751AA
:104F4000A0F0D1F0660F771F881F991F1AF0BA954D
:104F5000C9F712C0B13081F0C3D0B1E00895C0C02C
:104F6000672F782F8827B85F39F0B93FCCF3869543
:104F700077956795B395D9F73EF4909580957095A0
:104F800061957F4F8F4F9F4F0895E89409C097FB1D
:104F90003EF490958095709561957F4F8F4F9F4F10
:104FA0009923A9F0F92F96E9BB279395F695879554
:104FB00077956795B795F111F8CFFAF4BB0F11F417
:104FC00060FF1BC06F5F7F4F8F4F9F4F16C08823BE
:104FD00011F096E911C0772321F09EE8872F762FF4
:104FE00005C0662371F096E8862F70E060E02AF035
:104FF0009A95660F771F881FDAF7880F9695879521
:1050000097F90895990F0008550FAA0BE0E8FEEFF5
:1050100016161706E807F907C0F012161306E4077C
:10502000F50798F0621B730B840B950B39F40A2675
:1050300061F0232B242B252B21F408950A2609F453
:10504000A140A6958FEF811D811D089597F99F6757
:1050500080E870E060E008959FEF80EC0895002400
:105060000A941616170618060906089500240A94CD
:1050700012161306140605060895092E0394000C53
:1050800011F4882352F0BB0F40F4BF2B11F460FFE2
:1050900004C06F5F7F4F8F4F9F4F089557FD90580B
:1050A000440F551F59F05F3F71F04795880F97FBEC
:1050B000991F61F09F3F79F08795089512161306A6
:1050C0001406551FF2CF4695F1DF08C016161706D5
:1050D0001806991FF1CF869571056105089408950A
:1050E000E894BB2766277727CB0197F908958ADFD5
:1050F00008F48FEF08950BD0C0CFB1DF28F0B6DFF2
:1051000018F0952309F0A2CFA7CF1124EACFC6DF6C
:10511000A0F3959FD1F3950F50E0551F629FF001CA
:10512000729FBB27F00DB11D639FAA27F00DB11D23
:10513000AA1F649F6627B00DA11D661F829F2227AC
:10514000B00DA11D621F739FB00DA11D621F839F33
:10515000A00D611D221F749F3327A00D611D231F09
:10516000849F600D211D822F762F6A2F11249F5757
:1051700050408AF0E1F088234AF0EE0FFF1FBB1F7A
:10518000661F771F881F91505040A9F79E3F510519
:1051900070F05CCFA6CF5F3FECF3983EDCF38695D2
:1051A00077956795B795F795E7959F5FC1F7FE2BC4
:1051B000880F911D9695879597F9089590E080E066
:1051C00008958091740490917504891B990B08953A
:1051D00090917504809174042FEF3FEF981748F475
:1051E000E92FF0E0EA58FB4F208130E09F5F909379
:1051F0007504C9010895E091750480917404E8175D
:1052000030F4F0E0EA58FB4F808190E008958FEF92
:105210009FEF08950895CF93DF93EC01E0914C0444
:10522000F0914D043097F1F09091750480917404E1
:105230009817C0F090E0292F30E02617370754F474
:10524000DE01A20FB31F4C912A583B4FD9014C935A
:105250009F5FF1CF1092750460937404CB01DF91CE
:10526000CF910994DF91CF910895E0914E04F09190
:105270004F04309729F0109252041092510409946F
:105280000895CF93DF931F92CDB7DEB76983209146
:1052900050042223F9F020915104203258F021E0EB
:1052A00030E0FC013383228390E080E00F90DF91B7
:1052B000CF91089580915204E82FF0E0ED5AFB4F12
:1052C000998190838F5F809352048093510481E091
:1052D00090E0ECCF61E0CE01019606D1F8CFCF92FD
:1052E000DF92EF92FF920F931F93CF93DF937C0196
:1052F000CB018A0120915004222389F0EB016B013C
:10530000C40ED51ECC15DD0561F06991D701ED9174
:10531000FC910190F081E02DC7010995F3CF642F36
:10532000E3D0C801DF91CF911F910F91FF90EF90D3
:10533000DF90CF900895109275041092740410922B
:1053400052041092510497D085E399E2F9D08BE092
:1053500099E2F1C0CB01BA01B5C081E0809350045D
:1053600060937304109252041092510408950F93A5
:10537000062F21E04091510463E574E080917304AD
:10538000DBD11092520410925104109250040F91EC
:1053900008954F925F926F927F92AF92BF92CF9299
:1053A000EF92FF920F931F93CF93DF935C01F62E42
:1053B000D42F28013901EE2009F1CFDFCE2DC430E2
:1053C00008F0C3E0C150B8F028E0C29FC00111242A
:1053D000A301920104C056954795379527958A9564
:1053E000D2F7B901D501ED91FC910190F081E02D4A
:1053F000C5010995E7CF60E0C501B9DF4D2FD13276
:1054000008F040E22C2D66E774E08F2DB8D01092A2
:10541000750480937404DF91CF911F910F91FF90D9
:10542000EF90CF90BF90AF907F906F905F904F9034
:105430000895CF92EF920F931F93C22EE12C00E0BC
:1054400010E09801A6DF1F910F91EF90CF90089583
:1054500021E0EFCFE0E4F4E01382128288EE93E0E3
:10546000A0E0B0E084839583A683B78386EB91E0C8
:105470009183808308951092090581E08093070548
:105480001092060561E082E1ABD461E083E1A8D42B
:10549000E9EBF0E080818E7F808380818D7F808347
:1054A00088E48093B80085E48093BC000895ECEB19
:1054B000F0E080818A7B808360E082E191D460E0CB
:1054C00083E18EC49B01AC0160E074E284EF90E064
:1054D0009FD6205131094109510956954795379575
:1054E00027952093B80008952091B804260F3327FC
:1054F000331F21323105ECF420910905FC0190E0C5
:1055000080E0243069F082E00895A091B8042191F0
:10551000AC0146545B4FA40FB52FB11D2C930196DF
:10552000861798F38091B804680F6093B80480E000
:10553000089581E008959093FD048093FC040895FC
:105540009093FF048093FE04089585EC8093BC0043
:10555000109209050895CF93DF9391E09093010590
:10556000882351F0C091B800D091BA00A0DF83DF4A
:10557000D093BA00C093B800DF91CF9108954F92B5
:105580005F926F927F928F929F92AF92BF92CF92D3
:10559000DF92EF92FF920F931F93CF93DF93D82F59
:1055A000162F072FC42FB22E413208F09DC059D3B9
:1055B0006B017C0180910905811173C081E08093AA
:1055C0000905B09207059FEF909396041092DB04B3
:1055D0009C0F9093DA048093080580910805DD0FF5
:1055E000D82BD093080580910605813009F07EC044
:1055F0001092060536D36B017C01809108058093DB
:10560000BB008091020590910305A0910405B09123
:105610000505892B8A2B8B2B99F023D380900205CB
:1056200090900305A0900405B09005056C197D09C4
:105630008E099F0986169706A806B90608F451C078
:105640008091BC0083FDD9CF85EC8093BC0009D349
:105650006B017C0180910905813009F449C080917A
:10566000DB048C1710F4C091DB04ACEDB4E0912F97
:10567000E12FF02F8E2F891B8C1708F45AC08C2F26
:10568000DF91CF911F910F91FF90EF90DF90CF901E
:10569000BF90AF909F908F907F906F905F904F9052
:1056A00008958091020590910305A0910405B091A1
:1056B0000505892B8A2B8B2B09F47CCFD2D2409005
:1056C00002055090030560900405709005056C1963
:1056D0007D098E099F09461657066806790608F067
:1056E00069CF8091000537DFC0E0C9CF85EEADCF2F
:1056F0008091020590910305A0910405B0910505E4
:10570000892B8A2B8B2B09F4A5CFABD28090020575
:1057100090900305A0900405B09005056C197D09D3
:105720008E099F0986169706A806B90608F092CF3B
:10573000D8CF8D9181939ECF4F925F926F927F923F
:105740008F929F92AF92BF92EF92FF920F931F930F
:10575000CF93DF93413208F0D2C0F22ED42FE72E40
:10576000162FC82F7ED24B015C0180910905811153
:105770006DC082E080930905009307058FEF809349
:1057800096041092DB04D093DA04912FACEDB4E0D0
:10579000E12FFE2D8E2F891B8D1708F48AC01092E1
:1057A000080580910805CC0FC82BC093080580918F
:1057B0000605813009F080C01092060552D24B01D7
:1057C0005C01809108058093BB0080910205909157
:1057D0000305A0910405B0910505892B8A2B8B2B1D
:1057E00099F03FD200910205109103052091040524
:1057F00030910505681979098A099B090617170769
:105800002807390708F442C08091BC0083FDD9CF36
:1058100085EC8093BC0025D24B015C01FF2029F070
:1058200080910905823009F449C0809196048F3F28
:1058300009F467C080919604803209F464C08091B5
:105840009604803309F461C084E024C0809102058D
:1058500090910305A0910405B0910505892B8A2B31
:105860008B2B09F482CFFDD14090020550900305A7
:105870006090040570900505681979098A099B09EB
:10588000461657066806790608F06FCF8091000526
:1058900062DE85E0DF91CF911F910F91FF90EF9035
:1058A000BF90AF909F908F907F906F905F904F9040
:1058B000089581918D936ECF85EEABCF80910205D7
:1058C00090910305A0910405B0910505892B8A2BC1
:1058D0008B2B09F4A3CFC5D10091020510910305CC
:1058E0002091040530910505681979098A099B09F9
:1058F000061717072807390708F090CFC7CF81E0B0
:10590000C9CF80E0C7CF82E0C5CF83E0C3CF85EDAC
:105910008093BC008091020590910305A09104053D
:10592000B09105050796A11DB11D23E0B695A79579
:10593000979587952A95D1F72091BC0024FD03C047
:105940001092090508954091020550910305609158
:10595000040570910505452B462B472B69F30097ED
:10596000A105B10541F025E32A95F1F70000019763
:10597000A109B109E1CF80910005EDCD1F920F92F1
:105980000FB60F9211242F933F934F935F936F9312
:105990007F938F939F93AF93BF93EF93FF938091E8
:1059A000B900887F803609F44AC008F03DC08832CB
:1059B00009F4A6C018F5803109F49AC0B8F4882318
:1059C00009F4F6C0883009F493C0FF91EF91BF91BC
:1059D000AF919F918F917F916F915F914F913F9187
:1059E0002F910F900FBE0F901F901895883109F4DA
:1059F00087C0803251F78093960414C0803409F434
:105A00009CC040F48033B9F38833F9F68093960450
:105A10009CDDDBCF803509F484C0883509F495C05E
:105A2000883499F674DFD1CF883909F48CC038F501
:105A3000883729F050F4883611F0803731F683E04A
:105A4000809309051092970457C0883809F47BC0E9
:105A5000803919F0803809F0B8CF809197048032EE
:105A600008F071C0E091970481E08E0F8093970455
:105A70008091BB00F0E0E856FB4F80833DC0803B47
:105A800039F0E0F4803A09F479C0883A09F09DCF02
:105A900084E0809309051092B9041092B804E09153
:105AA000FE04F091FF0409958091B80481110FC0A4
:105AB00081E08093B8041092BA0409C0803C09F4D4
:105AC00075C0883C09F472C0883B09F07ECFE09134
:105AD000B90481E08E0F8093B904F0E0E654FB4FE7
